:020000040000FA
:04000000FEEFFFF020
:020000040001F9
:10FEF50001120012001200000EC66E000ECE6E003A
:10FF05000E0401006F000ECF6E000E086F300EC795
:10FF15006E1200000E116E000E126E000E136E00B2
:10FF25000E146E000E0D6E000E0E6E000E0F6E009E
:10FF35000E106E12000C8E7BECFFF08CECFFF07E49
:10FF4500ECFFF07DECFFF0C1ECFFF07CECFFF0A6E0
:10FF5500EFFFF0FEEFFFF0F50EF66EFE0EF76E0109
:10FF65000EF86E09006100D4F316F501EE01F115E6
:10FF75000EEE6AE806FDE100019DEFFFF0CFAAC68F
:10FF8500EFFFF0C8EFFFF0FDEFFFF01604D8A4CEA9
:10FF9500EFFFF0D0EFFFF0E8EFFFF0085007100695
:10FFA5001007E1400E055CD8B0DBEFFFF0DDEFFF99
:10FFB500F0E8EFFFF0010E0526000E0622072208E5
:10FFC500220550800FBE6EFDEFFFF0100ECF18D842
:10FFD500A4EFEFFFF0F1EFFFF0F5EFFFF0000E16E5
:10FFE5006EFDEFFFF0000E056E000E066E000E07AB
:0BFFF5006E000E086E1200AEEFFFF071
:020000040020DA
:10000000FF0FFF0FFF0FFF0FFF0FFF0FFF0FFF0F80
:10001000FF0FFF0FFF0FFF0FFF0FFF0FFF0FFF0F70
:020000040030CA
:0A0000008CFEFFFC9FFFFFFFFFFFD7
:00000001FF
