:020000040000FA
:04000000FEEFFFF020
:020000040001F9
:04FED4001200120006
:10FED900010202900E03011A6F540E1B6F120000EB
:10FEE9000ECE6E000EC66E000E0401006F120000E9
:10FEF9000E096E000E0A6E000E0B6E000E0C6E00DF
:10FF09000E056E000E066E000E076E000E086E12CC
:10FF19000003011A9F0F1C116E101C126E12C511DD
:10FF2900F5126A1150196F0F50FF0A186FB19E1A16
:10FF39008F1200D90EF66EFE0EF76E010EF86E09DD
:10FF4900006100D4F316F509006100D4F317F5092F
:10FF5900006100D4F318F501EE01F10E0EEE6AE826
:10FF690006FDE10001B9EFFFF0048E6AECFFF07CB9
:10FF7900ECFFF074ECFFF06EECFFF0D9ECFFF0BE93
:10FF89009E6BECFFF0030E106EE80E0F6E8DECFF0A
:10FF9900F0B1BED2EFFFF0D4EFFFF0CDEFFFF0BE2E
:10FFA9008EC2EFFFF0FEEFFFF0BE50116E126A1322
:10FFB9006A146A1150800B156E16C50FF517C51016
:10FFC900F5020E0D60EBEFFFF0EDEFFFF0F0EFFF44
:10FFD900F00D2AF2EFFFF0000E0D6E0F0E0D24D971
:10FFE9006EDA6A050EDA22DF501512610054F4BE8A
:07FFF900F412009EEFFFF07F
:020000040020DA
:10000000FF0FFF0FFF0FFF0FFF0FFF0FFF0FFF0F80
:10001000FF0FFF0FFF0FFF0FFF0FFF0FFF0FFF0F70
:020000040030CA
:0A0000008CFEFFFC9FFFFFFFFFFFD7
:00000001FF
