:020000040000FA
:04000000FEEFFFF020
:020000040001F9
:04FE7000120012006A
:10FE75000102041020800ECE6E000EC66E000E0428
:10FE850001006F1200800EBE6E900E03011A6F54B2
:10FE95000E1B6F1200000E0D6E000E0E6E000E0F83
:10FEA5006E000E106E000E096E000E0A6E000E0B2F
:10FEB5006E000E0C6E120003011A9F141C166E15AF
:10FEC5001C176E17C516F5176A1650196F1450FFD3
:10FED5000A186FB19E1A8F1200750EF66EFE0EF798
:10FEE5006E010EF86E01EE1BF110EE05F00900F53E
:10FEF500C4EEF4E550E150FAE101EE01F1130EEE26
:10FF05006AE806FDE1000188EFFFF0088E38ECFF96
:10FF1500F04DECFFF03DECFFF045ECFFF0A8ECFFF9
:10FF2500F0BE9E39ECFFF0030E156EE80E146E5E02
:10FF3500ECFFF0B1AEA1EFFFF0A3EFFFF09CEFFFF8
:10FF4500F0BE8E91EFFFF0FEEFFFF0010E012600EF
:10FF55000E022203220422BE5021EE1BF111EE16E1
:10FF6500F1040EDBC4E3F4E806FCE2F40E01180824
:10FF7500E1020403100410D8A4C3EFFFF0C5EFFF9E
:10FF8500F0FBEFFFF01250D8A4CBEFFFF0CDEFFF61
:10FF9500F0FBEFFFF0050E1160D3EFFFF0D5EFFF9B
:10FFA500F0EAEFFFF0000E016E000E026E000E0388
:10FFB5006E000E046E160E1124D96EDA6A050EDA7D
:10FFC50022DF50BE6E010E126E112AFDEFFFF0000A
:10FFD5000E116EF40E016E010E026E000E036E0020
:10FFE5000E046E610058F4BEF4010E126EFDEFFFB3
:0BFFF500F0000E126E12006FEFFFF024
:020000040020DA
:10000000FF0FFF0FFF0FFF0FFF0FFF0FFF0FFF0F80
:10001000FF0FFF0FFF0FFF0FFF0FFF0FFF0FFF0F70
:020000040030CA
:0A0000008CFEFFFC9FFFFFFFFFFFD7
:00000001FF
