:020000040000FA
:04000000FEEFFFF020
:020000040001F9
:04FE64001200120076
:10FE69000102041020800EBE6E900E03011A6F5419
:10FE79000E1B6F1200800ECE6E000EC66E000E04B1
:10FE890001006F000ECF6E000E086F300EC76E12A4
:10FE990000000E0D6E000E0E6E000E0F6E000E109D
:10FEA9006E000E096E000E0A6E000E0B6E000E0C2F
:10FEB9006E120003011A9F191C1B6E1A1C1C6E1C62
:10FEC900C51BF51C6A1B50196F1950FF0A186FB131
:10FED9009E1A8F1200690EF66EFE0EF76E010EF86D
:10FEE9006E01EE14F110EE05F00900F5C4EEF4E52B
:10FEF90050E150FAE101EE01F1130EEE6AE806FD58
:10FF0900E1000188EFFFF0088E32ECFFF04DECFFC5
:10FF1900F03FECFFF037ECFFF0A8ECFFF0BE9E33AA
:10FF2900ECFFF0030E1A6EE80E196E5EECFFF0B1ED
:10FF3900AEA1EFFFF0A3EFFFF09CEFFFF0BE8E91B3
:10FF4900EFFFF0FEEFFFF0010E0126000E02220383
:10FF590022042221EE14F111EE19F1040EDBC4E39F
:10FF6900F4E806FCE2F40E011808E10204031004A7
:10FF790010D8A4C2EFFFF0C4EFFFF0FBEFFFF012BF
:10FF890050D8A4CAEFFFF0CCEFFFF0FBEFFFF0056C
:10FF99000E1160D2EFFFF0D4EFFFF0EAEFFFF000AF
:10FFA9000E016E000E026E000E036E000E046E1935
:10FFB9000E1124D96EDA6A050EDA22DF508009BEE5
:10FFC9006E010E126E112AFDEFFFF0000E116E0088
:10FFD9000E016E000E026E000E036E000E046E1905
:10FFE900508009BE6E010E126EFDEFFFF0000E1279
:07FFF9006E12006FEFFFF034
:020000040020DA
:10000000FF0FFF0FFF0FFF0FFF0FFF0FFF0FFF0F80
:10001000FF0FFF0FFF0FFF0FFF0FFF0FFF0FFF0F70
:020000040030CA
:0A0000008CFEFFFC9FFFFFFFFFFFD7
:00000001FF
