:020000040000FA
:04000000FEEFFFF020
:020000040001F9
:10FECC0012001200120001000000000EC66E800E1F
:10FEDC00BE6E000E0401006F000ECF6E000E086F98
:10FEEC00300EC76E1200000E0D6E000E0E6E000E60
:10FEFC000F6E000E106E000E096E000E0A6E000ED4
:10FF0C000B6E000E0C6E1200088E66ECFFF079EC96
:10FF1C00FFF06BECFFF068ECFFF0B4ECFFF067EC7B
:10FF2C00FFF093EFFFF0FEEFFFF0D20EF66EFE0E39
:10FF3C00F76E010EF86E01EE1BF110EE04F00900E5
:10FF4C00F5C4EEF4E550E150FAE101EE01F1110EC9
:10FF5C00EE6AE806FDE100018AEFFFF061003CF378
:10FF6C0012F5200E12161250176E186A196A1A6AB8
:10FF7C001B501C101D101E10D8A4C7EFFFF0C9EFAA
:10FF8C00FFF0F5EFFFF0200E1718181019101A10CB
:10FF9C00D8A4D3EFFFF0D5EFFFF0F5EFFFF004504E
:10FFAC000310021007E1C00E015CD8B0E0EFFFF0C7
:10FFBC00E2EFFFF0EBEFFFF0010E0126000E022244
:10FFCC0003220422BE2AF5EFFFF061003CF312F588
:10FFDC00200E12161250176E186A196A1A6A17C573
:10FFEC001BF518C51CF519C51DF51AC51EF5120013
:04FFFC009BEFFFF088
:020000040020DA
:10000000FF0FFF0FFF0FFF0FFF0FFF0FFF0FFF0F80
:10001000FF0FFF0FFF0FFF0FFF0FFF0FFF0FFF0F70
:020000040030CA
:0A0000008CFEFFFC9FFFFFFFFFFFD7
:00000001FF
