:020000040000FA
:04000000FEEFFFF020
:020000040001F9
:10FF3E00120012001200800EBE6E900E03011A6F98
:10FF4E00540E1B6F1200000EC66E000E0401006FE1
:10FF5E00A00E00017F6F120001EE01F10D0EEE6A90
:10FF6E00E806FDE10001DEEFFFF0000E096E000E67
:10FF7E000A6E000E0B6E000E0C6E000E056E000E5D
:10FF8E00066E000E076E000E086E120003011A9F19
:10FF9E000E1C106E0F1C116E11C510F5116A10504B
:10FFAE00196F0E50FF0A186FB19E1A8F1200048E31
:10FFBE009FECFFF0BCECFFF0AAECFFF0A2ECFFF020
:10FFCE00A1ECFFF0BE9EA0ECFFF0030E0F6EE80E4C
:10FFDE000E6ECDECFFF0B1AEF7EFFFF0F9EFFFF0E4
:10FFEE00F2EFFFF0BE8EE7EFFFF0FEEFFFF0B3EFA4
:02FFFE00FFF012
:020000040020DA
:10000000FF0FFF0FFF0FFF0FFF0FFF0FFF0FFF0F80
:10001000FF0FFF0FFF0FFF0FFF0FFF0FFF0FFF0F70
:020000040030CA
:0A0000008CFEFFFC9FFFFFFFFFFFD7
:00000001FF
