:020000040000FA
:0400000081EF00F09C
:100008001F01070107010701400007014000070120
:100018000701070107010701070107010701070198
:1000280007014000400040000701070107010701E0
:100038000701070107011801D5000701070107019A
:1000480007010701070107014000400007010701F8
:100058000701070107014000070107010701070120
:100068000701070107010701070107010701070148
:100078000701070107010701400007010701070100
:100088000701070107010701070107010701070128
:100098000701070107010701400007014000400070
:1000A8000701070107010701070107010701070108
:1000B80007010701070107010701070107010701F8
:1000C80007010701070107010701070107010701E8
:1000D80007010701070107010701070107010701D8
:1000E80040000701070107014000400040004000B0
:1000F8000701070107010701FF0003EF01F08083F3
:1001080086898C8F9295989B9EA2A5A7AAADB0B31D
:10011800B6B9BCBEC1C4C6C9CBCED0D3D5D7DADC3C
:10012800DEE0E2E4E6E8EAEBEDEEF0F1F3F4F5F612
:10013800F8F9FAFAFBFCFDFDFEFEFEFFFFFFFFFFEC
:10014800FFFFFEFEFEFDFDFCFBFAFAF9F8F6F5F4FA
:10015800F3F1F0EEEDEBEAE8E6E4E2E0DEDCDAD734
:10016800D5D3D0CECBC9C6C4C1BEBCB9B6B3B0AD69
:10017800AAA7A5A29E9B9895928F8C898683807C3E
:10018800797673706D6A6764615D5A5855524F4C41
:10019800494643413E3B393634312F2C2A28252302
:1001A800211F1D1B1917151412110F0E0C0B0A090C
:1001B8000706050504030202010101000000000012
:1001C80000000101010202030405050607090A0BE4
:1001D8000C0E0F1112141517191B1D1F212325288A
:1001E8002A2C2F313436393B3E414346494C4F5235
:1001F80055585A5D6164676A6D707376797C060E2E
:10020800F66E010EF76E000EF86E01EE00F210EEBB
:1002180000F10900F5C4EEF4E550E150FAE1E250CE
:10022800F8E1160EF66E030EF76E000EF86E01EE8C
:1002380001F110EE3CF00900F5C4EEF4E550E15090
:10024800FAE101EE3DF1150EEE6AE806FDE1040162
:10025800080E5D6F000E5E6F000E5F6F0001E1EF2C
:1002680001F0D8904134D96E4234DA6E210ED92685
:10027800050EDA22DF5000017D6F010E4126000EC7
:1002880042224322442244504310421009E10E0EF8
:10029800415CD8A052EF01F054EF01F060EF01F09B
:1002A800000E416E000E426E000E436E000E446E4C
:1002B800000E7D6F320E7D6F120003011E91800EBD
:1002C800545CD8A06AEF01F06CEF01F06FEF01F019
:1002D8007F0E546E5368531C566E541C576E5750FD
:1002E8004F6E56C54EF561003CF51DF3610038F5BB
:1002F8001CF350905550D8B484EF01F086EF01F00C
:1003080087EF01F05080B198A1881E811200000883
:10031800000000040000000200000001000080004E
:100328000000320000004B000000000000003C000C
:100338003C00280028002400240028002D002D005F
:0A0348002F002F00350035003C00A7
:1003540061003CF51DF3610038F51CF3000E4D24DB
:10036400D96EDA6A060EDA22DF5000017D6F040EC0
:100374004D26B19850B0C1EF01F0C3EF01F0C6EFC4
:1003840001F0A19803011E911100000E496E000EA8
:100394004A6E000E4B6E000E4C6E000E456E000E43
:1003A400466E000E476E000E486E7D0E0301236FED
:1003B400010E266FB196F00E246FA1861200518EA5
:1003C40040EC02F01BEC02F039EC02F0C7EC01F057
:1003D400F7EC01F0519E35EC01F0BE9E26EC02F0E4
:1003E400BE8EEDEF01F081EF00F0C00EBE16900E50
:1003F40003011A6F540E1B6F000E1F6F010E216F45
:10040400310E1E6F000E546E100E536E010E556E9B
:0604140061EC01F0120092
:10041C00610060F352F5010E3D26000E3E223F2294
:10042C004022610048F5D8F41100000E0401006F61
:10043C00000EC66EA00E00017F6F000E7D6F1200C5
:10044C00518C51BC2CEF02F02EEF02F027EF02F092
:02045C0012008C
:10046000B196519C010E4926000E4A224B224C2285
:0A0470001100D68AD68ED68C120039
:06047C00AE901100120019
:020000040020DA
:10000000FF0FFF0FFF0FFF0FFF0FFF0FFF0FFF0F80
:10001000FF0FFF0FFF0FFF0FFF0FFF0FFF0FFF0F70
:020000040030CA
:0A0000008CFEFFFC9FFFFFFFFFFFD7
:00000001FF
