:020000040000FA
:0400000081EF00F09C
:100008003E01260126012601400026014000260166
:1000180026012601260126012601260126012601A0
:100028002601400040004000260126012601260145
:100038002601260126013701F400260126012601A2
:10004800260126012601260140004000260126013E
:100058002601260126014000260126012601260147
:100068002601260126012601260126012601260150
:100078002601260126012601400026012601260127
:100088002601260126012601260126012601260130
:1000980026012601260126014000260140004000D5
:1000A8002601260126012601260126012601260110
:1000B8002601260126012601260126012601260100
:1000C80026012601260126012601260126012601F0
:1000D80026012601260126012601260126012601E0
:1000E8004000260126012601400040004000400053
:1000F8002601260126012601FF008CEF01F08083EE
:1001080086898C8F9295989B9EA2A5A7AAADB0B31D
:10011800B6B9BCBEC1C4C6C9CBCED0D3D5D7DADC3C
:10012800DEE0E2E4E6E8EAEBEDEEF0F1F3F4F5F612
:10013800F8F9FAFAFBFCFDFDFEFEFEFFFFFFFFFFEC
:10014800FFFFFEFEFEFDFDFCFBFAFAF9F8F6F5F4FA
:10015800F3F1F0EEEDEBEAE8E6E4E2E0DEDCDAD734
:10016800D5D3D0CECBC9C6C4C1BEBCB9B6B3B0AD69
:10017800AAA7A5A29E9B9895928F8C898683807C3E
:10018800797673706D6A6764615D5A5855524F4C41
:10019800494643413E3B393634312F2C2A28252302
:1001A800211F1D1B1917151412110F0E0C0B0A090C
:1001B8000706050504030202010101000000000012
:1001C80000000101010202030405050607090A0BE4
:1001D8000C0E0F1112141517191B1D1F212325288A
:1001E8002A2C2F313436393B3E414346494C4F5235
:1001F80055585A5D6164676A6D707376797C3C0006
:1002080000003C0000002800000028000000240036
:10021800000024000000280000002D0000002D0030
:1002280000002F0000002F000000350000003500FE
:1002380000003C00000028000000280000002D00FD
:1002480000002D0000002F0000002F0000003500E6
:1002580000000002320000023200000232000002F8
:1002680032000002320000023200000432000002B4
:1002780032000002320000023200000232000002A6
:100288003200000232000002320000023200000296
:100298003200000232000002320000023200105028
:1002A800020DB40EF324D96E050EF420DA6E0D504B
:1002B800DE1807E10E50DE18D8A465EF01F067EFED
:1002C80001F06CEF01F0102A000E0E6E000E0D6E9C
:1002D8002A0E1018D8A473EF01F075EF01F077EF2C
:1002E80001F0000E106E0D4A0E2A1050020D600E1D
:1002F800F324D96E050EF420DA6E610078F316F552
:10030800610074F317F5010E186EBEEC01F01200CF
:10031800060EF66E010EF76E000EF86E01EE00F294
:1003280010EE00F10900F5C4EEF4E550E150FAE1F1
:10033800E250F8E1060EF66E020EF76E000EF86E49
:1003480001EE60F110EEA0F00900F5C4EEF4E550FE
:10035800E150FAE101EE01F1140EEE6AE806FDE162
:100368000401080E5D6F000E5E6F000E5F6F0001E6
:100378001FEF02F003011E91800E175CD8A0C7EF93
:1003880001F0C9EF01F0CCEF01F07F0E176E16688F
:10039800161C196E171C1A6E1A50126E19C511F513
:1003A800610048F41DF3610044F41CF313901850E5
:1003B800D8B4E1EF01F0E3EF01F0E4EF01F01380CE
:1003C800B198A1881E811200610048F41DF36100F4
:1003D80044F41CF3000E0F24D96EDA6A060EDA22F2
:1003E800DF5000017D6F040E0F26B19813B0FFEFA8
:1003F80001F001EF02F004EF02F0A19803011E9151
:100408001100000E096E000E0A6E000E0B6E000E33
:100418000C6E000E056E000E066E000E076E000EC6
:10042800086E7D0E0301236F010E266FB196F00E44
:10043800246FA1861200148E7EEC02F059EC02F0B3
:1004480077EC02F005EC02F035EC02F0149E53EC68
:1004580001F0BE9E64EC02F0BE8E2BEF02F081EF3D
:1004680000F0C00EBE16900E03011A6F540E1B6FDB
:10047800000E1F6F010E216F310E1E6F000E176EDA
:0E048800100E166E010E186EBEEC01F0120082
:10049800610060F315F5010E0126000E0222032209
:1004A8000422610054F4D8F41100000E0401006F16
:1004B800000EC66EA00E00017F6F000E7D6F120049
:1004C800148C14BC6AEF02F06CEF02F065EF02F0D6
:0204D800120010
:1004DC00B196149C010E0926000E0A220B220C2246
:0A04EC001100D68AD68ED68C1200BD
:0604F800AE90110012009D
:020000040020DA
:10000000FF0FFF0FFF0FFF0FFF0FFF0FFF0FFF0F80
:10001000FF0FFF0FFF0FFF0FFF0FFF0FFF0FFF0F70
:020000040030CA
:0A0000008CFEFFFC9FFFFFFFFFFFD7
:00000001FF
