:020000040000FA
:04000000FEEFFFF020
:020000040001F9
:10FF3400120012001200000ECE6E000EC66E000EED
:10FF44000401006F120001EE01F10D0EEE6AE806E5
:10FF5400FDE10001BFEFFFF0000E096E000E0A6E16
:10FF6400000E0B6E000E0C6E000E056E000E066E7B
:10FF7400000E076E000E086E1200048E9AECFFF05D
:10FF8400AEECFFF09DECFFF09CECFFF0D0ECFFF04A
:10FF94009BECFFF0C8EFFFF0FEEFFFF0000E126ED7
:10FFA400122A800E1260D9EFFFF0DBEFFFF0D0EFE2
:10FFB400FFF01250800FCE6E000E0E6E000E0F6E0C
:10FFC400000E106E000E116E010E0E26000E0F2292
:10FFD4001022112211500DE1400E0E5C0D0E0F582F
:10FFE400030E1058D8A0F9EFFFF0FBEFFFF0E6EF97
:0CFFF400FFF0D2EFFFF01200A5EFFFF0CD
:020000040020DA
:10000000FF0FFF0FFF0FFF0FFF0FFF0FFF0FFF0F80
:10001000FF0FFF0FFF0FFF0FFF0FFF0FFF0FFF0F70
:020000040030CA
:0A0000008CFEFFFC9FFFFFFFFFFFD7
:00000001FF
